020002606800000000000010000TORRELLAS, JOSE                                                       00IPSTAUCL              *
020006448800000000000010000PRADO DE P, PASTORA E                                                 00IPSTAUCL              *
020016212200000000000010000CHACON L., JOSE                                                       00IPSTAUCL              *
020020502600000000000010000ESCOBAR DE S., BERTA                                                  00IPSTAUCL              *
0240110692N0021043700000000000010000CASTILLO, AUGUSTO                                                     00IPSTAUCL              *
020021795500000000000010000USCANGA, JOSE A.                                                      00IPSTAUCL              *
020025340300000000000010000FUCHS DE A., CARMEN                                                   00IPSTAUCL              *
020025768000000000000010000COLMENARES, TEODOLINDA                                                00IPSTAUCL              *
020026075300000000000010000MUJICA, JOSE A.                                                       00IPSTAUCL              *
020027352100000000000010000TORRES A., NESTOR                                                     00IPSTAUCL              *
020027412900000000000010000GARCIA, RAFAEL D.                                                     00IPSTAUCL              *
020028881500000000000010000PRADO, PEDRO                                                          00IPSTAUCL              *
020031163700000000000010000FREITEZ, UVENCIO                                                      00IPSTAUCL              *
020034948600000000000010000QUINTANA, PETRA                                                       00IPSTAUCL              *
020035006500000000000010000GIL DE Y., ALICIA                                                     00IPSTAUCL              *
020040179200000000000010000SUAREZ DE A., IRMA                                                    00IPSTAUCL              *
020041123600000000000010000PADILLA P., VICTOR R.                                                 00IPSTAUCL              *
020041176400000000000010000COLMENAREZ P., IRMA C.                                                00IPSTAUCL              *
020042595500000000000010000MENDOZA DE A., ELINA                                                  00IPSTAUCL              *
020042941900000000000010000PONTE DE A., HILDA                                                    00IPSTAUCL              *
0240111791E0043334500000000000010000BRICENO DE L., AURORA                                                 00IPSTAUCL              *
020043483400000000000010000SANCHEZ, MANUEL                                                       00IPSTAUCL              *
020043848700000000000010000DUDAMEL, CRUZ M                                                       00IPSTAUCL              *
020051987900000000000010000MARQUEZ, CANDIDO                                                      00IPSTAUCL              *
020062991900000000000010000HERNANDEZ DE C, CORINA E                                              00IPSTAUCL              *
020063873000000000000010000GOMEZ, RUBEN AGUSTIN                                                  00IPSTAUCL              *
020064814300000000000010000HAGOBIAN O., JORGE J.                                                 00IPSTAUCL              *
020064818200000000000010000GIRON, LUIS E.                                                        00IPSTAUCL              *
020065228000000000000010000GIL SALAS, EYTEL J                                                    00IPSTAUCL              *
020067903700000000000010000PENA, JOSE                                                            00IPSTAUCL              *
020068485500000000000010000VOLCANES DE R., MARINA                                                00IPSTAUCL              *
020086166200000000000010000VILLARREAL, RAFAEL A.                                                 00IPSTAUCL              *
020089513500000000000010000LOBO C, MARIA C                                                       00IPSTAUCL              *
020092662400000000000010000RONDON DE C, BLANCA                                                   00IPSTAUCL              *
020094316300000000000010000PEREZ, SOCORRO                                                        00IPSTAUCL              *
0240110120L0095066500000000000010000ARTEAGA, JORGE                                                        00IPSTAUCL              *
020095192800000000000010000VIVAS P., PABLO A.                                                    00IPSTAUCL              *
020095469900000000000010000ROMAN, VENANCIO                                                       00IPSTAUCL              *
0240110025C0096270900000000000010000AVELEDO, RAUL O.                                                      00IPSTAUCL              *
020097790100000000000010000PEREZ, EDILIO                                                         00IPSTAUCL              *
020098951300000000000010000RODRIGUEZ, PASTOR                                                     00IPSTAUCL              *
020099245600000000000010000MENDOZA D., CARLOS E.                                                 00IPSTAUCL              *
020110862500000000000010000RIVAS HERRERA, RUBEN D.                                               00IPSTAUCL              *
0240111518C0111439800000000000010000ALVARADO DE H., SHIRLEY                                               00IPSTAUCL              *
020112481200000000000010000RANGEL R., SALOMON H.                                                 00IPSTAUCL              *
020112761600000000000010000MAURQUET DE G., YUMARY                                                00IPSTAUCL              *
020123697300000000000010000LOPEZ DE F., CANDIDA                                                  00IPSTAUCL              *
020124160600000000000010000SCHOTBORGH, MARTHA                                                    00IPSTAUCL              *
020124360600000000000010000GALLARDO, ANA E.                                                      00IPSTAUCL              *
020124501500000000000010000RIVERO, CARMEN S.                                                     00IPSTAUCL              *
020125733700000000000010000MORILLO DE N., LESBIA                                                 00IPSTAUCL              *
020125753700000000000010000MARCHAN DE T, TEOFILA                                                 00IPSTAUCL              *
020125806200000000000010000MATHEUS, RAMON G.                                                     00IPSTAUCL              *
020125954600000000000010000DLUCCA, ELIA R.                                                       00IPSTAUCL              *
020126167700000000000010000MARTINEZ, LILIAN                                                      00IPSTAUCL              *
020126228700000000000010000GUEDEZ C., MOISES A.                                                  00IPSTAUCL              *
020126332400000000000010000COLMENAREZ, ELSY                                                      00IPSTAUCL              *
0240110379B0126834400000000000010000BEJARANO, MARIELLA                                                    00IPSTAUCL              *
020126988500000000000010000ARAUJO, LIGIA                                                         00IPSTAUCL              *
020126994800000000000010000PELLEGATTI, HECTOR                                                    00IPSTAUCL              *
020127028600000000000010000RODRIGUEZ, CIRCUNCISION                                               00IPSTAUCL              *
020127345800000000000010000GUTIERREZ P., MERCEDES                                                00IPSTAUCL              *
020127404400000000000010000GONZALEZ DE B., MARIA J.                                              00IPSTAUCL              *
020127426900000000000010000GIMENEZ, ANGELA                                                       00IPSTAUCL              *
020127454200000000000010000MORALES M., PASTORA                                                   00IPSTAUCL              *
020127493300000000000010000MEDINA DE C., MARIA                                                   00IPSTAUCL              *
020127517000000000000010000GIMENEZ, MARIA A.                                                     00IPSTAUCL              *
0240110410P0127521800000000000010000BRZOZOWSKI, BRUNON                                                    00IPSTAUCL              *
020127571800000000000010000ROJAS D., ELVIA P.                                                    00IPSTAUCL              *
020127582900000000000010000GUTIERREZ, LIGIA                                                      00IPSTAUCL              *
020127595800000000000010000TORRES DE P., SONIA                                                   00IPSTAUCL              *
0240112775N0127673500000000000010000ALEJOS DE R., NORMA                                                   00IPSTAUCL              *
020127675100000000000010000MARTINEZ, NELSON                                                      00IPSTAUCL              *
020127815200000000000010000VILORIA, PEDRO A                                                      00IPSTAUCL              *
020133615600000000000010000FERNANDEZ B., CARMEN O.                                               00IPSTAUCL              *
020134623600000000000010000PEREZ J, EDMUNDO                                                      00IPSTAUCL              *
020140700200000000000010000LEAL, JESUS A.                                                        00IPSTAUCL              *
0240110061Q0140848600000000000010000ABREU, BENITO R.                                                      00IPSTAUCL              *
020140957000000000000010000BENITEZ DE T., HILDA                                                  00IPSTAUCL              *
020160033200000000000010000MARTINEZ M., OLGA                                                     00IPSTAUCL              *
020160542600000000000010000ALVARADO DE G, ANA                                                    00IPSTAUCL              *
020161934800000000000010000ORTIZ, CARLOS                                                         00IPSTAUCL              *
020165667800000000000010000ALBORNOZ DE B, DALA M                                                 00IPSTAUCL              *
020166213400000000000010000FORD G., JULIETA Y.                                                   00IPSTAUCL              *
0240110370E0166679900000000000010000BARBOZA B., EFRAIN S.                                                 00IPSTAUCL              *
0240110109W0177622100000000000010000ALVAREZ, BETTY                                                        00IPSTAUCL              *
0240110073L0188567900000000000010000ARISMENDI DE A., GLORIA                                               00IPSTAUCL              *
020203458500000000000010000YANEZ V., ROSA M.                                                     00IPSTAUCL              *
020206115200000000000010000OCANTO DE M., AIDA                                                    00IPSTAUCL              *
020210970400000000000010000URBINA, SIMON                                                         00IPSTAUCL              *
0240113079R0211192800000000000010000CABALLERO, MARIA                                                      00IPSTAUCL              *
020211822100000000000010000GOMEZ, CIRO                                                           00IPSTAUCL              *
020214330000000000000010000GONZALEZ, PASTOR                                                      00IPSTAUCL              *
020217652100000000000010000MARQUEZ, JOSE J.                                                      00IPSTAUCL              *
020218877900000000000010000ISAACURA, LAILA                                                       00IPSTAUCL              *
0240110574P0219596300000000000010000ARRIETA, NANCY                                                        00IPSTAUCL              *
020219620400000000000010000MARTINEZ, JONAS                                                       00IPSTAUCL              *
020219687400000000000010000ALVARADO, ROSA A                                                      00IPSTAUCL              *
020219874800000000000010000CAMACHO DE MONTES, TERESA                                             00IPSTAUCL              *
020222581700000000000010000JIMENEZ, JESUS DARIO                                                  00IPSTAUCL              *
020223312600000000000010000GARCIA, SAUL                                                          00IPSTAUCL              *
0240110343X0236288200000000000010000BETHENCOURT, ELSA                                                     00IPSTAUCL              *
020237874600000000000010000MONTES DE OCA M., RAFAEL J.                                           00IPSTAUCL              *
020238065400000000000010000PEROZO DE R., GLADYS                                                  00IPSTAUCL              *
0240117866F0238438600000000000010000ALVAREZ O., MIRIAN C.                                                 00IPSTAUCL              *
020238456400000000000010000PEREIRA DE V., AURA                                                   00IPSTAUCL              *
020238456500000000000010000PEREIRA DE C., LUISA                                                  00IPSTAUCL              *
020245755100000000000010000DELGADO M., ORLANDO                                                   00IPSTAUCL              *
020247299300000000000010000RAMOS, LUIS R.                                                        00IPSTAUCL              *
0240110166N0251516700000000000010000ALVIS G., JUAN C.                                                     00IPSTAUCL              *
020251530700000000000010000ROMAN DE S., ROSA C.                                                  00IPSTAUCL              *
020253263200000000000010000FERMIN R., CERBONIO                                                   00IPSTAUCL              *
020253322000000000000010000TERAN DE CH., YOLANDA                                                 00IPSTAUCL              *
020253338700000000000010000ROMAN P., MARIANA                                                     00IPSTAUCL              *
020253418100000000000010000UNDA DE R., ANA L.                                                    00IPSTAUCL              *
020253519400000000000010000SALAS, ALBERTO J.                                                     00IPSTAUCL              *
020253587500000000000010000MEJIAS DE E., CLEMENTINA                                              00IPSTAUCL              *
0240115997Z0253592600000000000010000CAMPOS, CARMEN M.                                                     00IPSTAUCL              *
020253640300000000000010000ESPINA DE G., PILAR                                                   00IPSTAUCL              *
020253680100000000000010000SOTELDO M., JOSE R.                                                   00IPSTAUCL              *
0240110114A0253776800000000000010000ARMADO T., SEGUNDO M.                                                 00IPSTAUCL              *
020253944600000000000010000PUERTA DE M., EDILIA M.                                               00IPSTAUCL              *
020254017000000000000010000GONZALEZ, VIRGINIA                                                    00IPSTAUCL              *
020254101600000000000010000MONTESINOS, OSCAR A.                                                  00IPSTAUCL              *
0240110581F0254139800000000000010000CASTELLANO, PEDRO                                                     00IPSTAUCL              *
020254168700000000000010000GONZALEZ, JOSE R                                                      00IPSTAUCL              *
020254233700000000000010000COLMENAREZ, RAFAEL A.                                                 00IPSTAUCL              *
020254346900000000000010000ORELLANA, ROLANDO J                                                   00IPSTAUCL              *
020254352500000000000010000MARCHAN, HILDA                                                        00IPSTAUCL              *
0240110167P0254417400000000000010000ALVARADO DE R., ELVIA                                                 00IPSTAUCL              *
020254432100000000000010000SOTO E., CECILIA                                                      00IPSTAUCL              *
020254451900000000000010000GONZALEZ, AMALIA                                                      00IPSTAUCL              *
020254454000000000000010000ALEJOS DE A, JUANA                                                    00IPSTAUCL              *
020254484900000000000010000HERNANDEZ DE A., SILVIA                                               00IPSTAUCL              *
020254486800000000000010000GARCIA DE C., LIGIA                                                   00IPSTAUCL              *
020256606900000000000010000CAMACHO, MARIA D                                                      00IPSTAUCL              *
020256706000000000000010000PRIETO CH., HERNAN                                                    00IPSTAUCL              *
020257071900000000000010000DIAZ M, MARIETTA                                                      00IPSTAUCL              *
020257333400000000000010000PEREIRAC, IVAN                                                        00IPSTAUCL              *
020259078400000000000010000NAVAS DE A., REIDES P.                                                00IPSTAUCL              *
020259460800000000000010000MENDOZA, CARLOS A.                                                    00IPSTAUCL              *
020259651900000000000010000MENDOZA, MINERVA                                                      00IPSTAUCL              *
0240110397N0259755600000000000010000BUJANDA A., IRMA                                                      00IPSTAUCL              *
020259847300000000000010000SOTO, ENEDINA                                                         00IPSTAUCL              *
020259876000000000000010000ESCALONA, ANTONIO                                                     00IPSTAUCL              *
020260015000000000000000600LUCENA DE F., CARMEN                                                  00IPSTAUCL              *
020260059900000000000010000PEREZ T, ELIEZER                                                      00IPSTAUCL              *
020000000000260122800000000000010000MENDOZA A, SEGUNDO Z                                                  00IPSTAUCL              *
020260165500000000000010000GARMENDIA, RAFAELA                                                    00IPSTAUCL              *
020260227600000000000010000ALVAREZ M., YOLANDA M.                                                00IPSTAUCL              *
020260232800000000000010000PEREZ, ANTONIO                                                        00IPSTAUCL              *
020260379500000000000010000GOYO DE A., ILENDA                                                    00IPSTAUCL              *
020260444600000000000010000PEREZ DE M., AMELIA                                                   00IPSTAUCL              *
020260887600000000000010000MONTESINOS, RAFAEL L.                                                 00IPSTAUCL              *
020268886000000000000010000ROSALES DE C., TENILDA R.                                             00IPSTAUCL              *
020271719700000000000010000TERAN, DIGNA                                                          00IPSTAUCL              *
020272280000000000000010000GIMENEZ DE M., CARMEN                                                 00IPSTAUCL              *
020272346300000000000010000RODRIGUEZ DE C., CARMEN                                               00IPSTAUCL              *
020272545400000000000010000MOLINA, BERNARDO                                                      00IPSTAUCL              *
020275632100000000000010000AZUAJE M., LIBIA                                                      00IPSTAUCL              *
020277710300000000000010000GRANADOS F, CRUZ M                                                    00IPSTAUCL              *
020280988400000000000010000OROPEZA, ANGEL                                                        00IPSTAUCL              *
020281774400000000000010000HUMBRIA V., JOSE B.                                                   00IPSTAUCL              *
020282278100000000000010000MARTINEZ, SEBASTIAN                                                   00IPSTAUCL              *
020286518500000000000010000SERRANO, NORBERTO                                                     00IPSTAUCL              *
020286729000000000000010000LEIVA, HUGO                                                           00IPSTAUCL              *
020287954600000000000010000ORTEGA M., LUIS E.                                                    00IPSTAUCL              *
020289082000000000000010000MONSALVE, INOCENCIA I                                                 00IPSTAUCL              *
020289311200000000000010000NOVOA DE S., NEIDA                                                    00IPSTAUCL              *
020291008200000000000010000MAJANO, REINA                                                         00IPSTAUCL              *
020291023100000000000010000SANTANDER, NANCY                                                      00IPSTAUCL              *
020291059800000000000010000TORRES G., JOSE A.                                                    00IPSTAUCL              *
020291067200000000000010000LOBO D, CESAR                                                         00IPSTAUCL              *
020291068200000000000010000MARRERO, ARTURO                                                       00IPSTAUCL              *
0240117408M0291168700000000000010000ADAM, CARLOS                                                          00IPSTAUCL              *
020291226100000000000010000YANEZ, ANA F.                                                         00IPSTAUCL              *
020291281900000000000010000ZERPA DE U., ALBA                                                     00IPSTAUCL              *
020291282000000000000010000ZERPA, CARMEN S.                                                      00IPSTAUCL              *
020291331400000000000010000DIAZ DE M., ANA M.                                                    00IPSTAUCL              *
020291371700000000000010000LAIRET V., REBECA                                                     00IPSTAUCL              *
020291397800000000000010000TORRES, LILIAM                                                        00IPSTAUCL              *
020291411000000000000010000FERMIN DE A., NEVIA                                                   00IPSTAUCL              *
020291412600000000000010000ANZOLA DE F., MARISELA                                                00IPSTAUCL              *
0240115977C0291504100000000000010000CHIRINOS C., GONZALO R.                                               00IPSTAUCL              *
020291509600000000000010000OSORIO DE B., IRIS                                                    00IPSTAUCL              *
020291512600000000000010000NIETO DE C., ANGELA                                                   00IPSTAUCL              *
020291534100000000000010000GOMEZ DE O., EGLEE                                                    00IPSTAUCL              *
020291576200000000000010000SILVA, RAFAEL                                                         00IPSTAUCL              *
020291596500000000000010000DELGADO, JUAN M.                                                      00IPSTAUCL              *
020291598900000000000010000PERNALETE C., MIGUEL                                                  00IPSTAUCL              *
020291636300000000000010000TORRES DE H., ISABEL                                                  00IPSTAUCL              *
020291651900000000000010000FIGUEROA, ALBINO R.                                                   00IPSTAUCL              *
020291659400000000000010000HURTADO DE M., MARY                                                   00IPSTAUCL              *
020291682100000000000010000RODRIGUEZ, MOISES                                                     00IPSTAUCL              *
0240110122A0291685200000000000010000ANZOLA, NAUDY                                                         00IPSTAUCL              *
020291695500000000000010000LEON, FREDDY                                                          00IPSTAUCL              *
020291705500000000000010000GIMENEZ, YOLANDA                                                      00IPSTAUCL              *
020291711600000000000010000NINO DE A., MIREYA                                                    00IPSTAUCL              *
020291746900000000000010000SPINELLO O., FERDINANDO                                               00IPSTAUCL              *
020291749600000000000010000PEREZ, NANCY J.                                                       00IPSTAUCL              *
020291757300000000000010000ROJAS R., GLEMYS                                                      00IPSTAUCL              *
020291780700000000000010000RIVERO P., DILCIA                                                     00IPSTAUCL              *
020291820400000000000010000REINOSO, VIRME                                                        00IPSTAUCL              *
020291821900000000000010000SORIANO C, SILDA                                                      00IPSTAUCL              *
020291881600000000000010000DIAZ DE A., ADDA                                                      00IPSTAUCL              *
020295415700000000000010000BERNAL F, LUCIANO                                                     00IPSTAUCL              *
020296132100000000000010000SEIJAS, ROSE MARIE                                                    00IPSTAUCL              *
020296495000000000000010000ESCALANTE M., JOSE A.                                                 00IPSTAUCL              *
020297030900000000000010000GIMENEZ DE G, SUSANA A                                                00IPSTAUCL              *
020298846100000000000010000PEREZ, BERSY V.                                                       00IPSTAUCL              *
0240110079S0304107600000000000010000ARTILES, PEDRO                                                        00IPSTAUCL              *
020304407300000000000010000SEGURA G., JOSE R.                                                    00IPSTAUCL              *
020306388800000000000010000DURAN DE L., LIGIA B.                                                 00IPSTAUCL              *
020307740600000000000010000MENDOZA M., OSCAR E.                                                  00IPSTAUCL              *
0240110086A0308005800000000000010000ALVAREZ P., ALIRIO A.                                                 00IPSTAUCL              *
020308046800000000000010000VIVAS DE C., PETRA                                                    00IPSTAUCL              *
020308058900000000000010000OCANTO DE P., CARMEN M.                                               00IPSTAUCL              *
020308131100000000000010000SILVA, JOSE V.                                                        00IPSTAUCL              *
020308194300000000000010000GUTIERREZ R., ANDRES R.                                               00IPSTAUCL              *
020308198800000000000010000SOTO, MARTIN                                                          00IPSTAUCL              *
020308223800000000000010000MOGOLLON P., NELSON                                                   00IPSTAUCL              *
020308251300000000000010000GIMENEZ, ANDRES                                                       00IPSTAUCL              *
020308266600000000000010000JUAREZ, OSWALDO                                                       00IPSTAUCL              *
020308272100000000000010000URDANETA U., EMILIA R.                                                00IPSTAUCL              *
020308285800000000000010000JIMENEZ DE V., MARIA                                                  00IPSTAUCL              *
020308314200000000000010000ACOSTA L, HILDA                                                       00IPSTAUCL              *
020308324800000000000010000GUTIERREZ DE E., ANCORA                                               00IPSTAUCL              *
0240110368G0308361500000000000010000BRIZUELA DE R., ELIET                                                 00IPSTAUCL              *
020308375700000000000010000TOLOSA DE P., SARA                                                    00IPSTAUCL              *
020308398000000000000010000GIMENEZ, LUIS                                                         00IPSTAUCL              *
020308398600000000000010000ROJAS, LEONEL                                                         00IPSTAUCL              *
020308406300000000000010000SUAREZ, CECILIO                                                       00IPSTAUCL              *
020308464300000000000010000PALMA, ORLANDO                                                        00IPSTAUCL              *
020308566300000000000010000MARANTE, SONIA                                                        00IPSTAUCL              *
0245610084E0308688900000000000010000CASTELLANO DE H., ANA Y.                                              00IPSTAUCL              *
020308699300000000000010000MENDOZA, FELIPE                                                       00IPSTAUCL              *
020308794600000000000010000HERNANDEZ, EDITH                                                      00IPSTAUCL              *
020308817300000000000010000MURRIETTA, ARIANI K.                                                  00IPSTAUCL              *
020308820300000000000010000DIAZ, EDDY                                                            00IPSTAUCL              *
020308820500000000000010000ESPINOZA, BRADISLAV                                                   00IPSTAUCL              *
020308851500000000000010000MARTINEZ A., JULIO C.                                                 00IPSTAUCL              *
020308864300000000000010000SOSA, MARY                                                            00IPSTAUCL              *
020308874300000000000010000PERAZA, PASTOR                                                        00IPSTAUCL              *
020308885600000000000010000MENDEZ M., YOLANDA                                                    00IPSTAUCL              *
0240116249T0308902100000000000010000AGUILAR, GERARDO                                                      00IPSTAUCL              *
020308936600000000000010000VILORIA, AIDA                                                         00IPSTAUCL              *
0240110027E0308951000000000000010000ALVARADO, CARLOS                                                      00IPSTAUCL              *
020308961600000000000010000VASQUEZ DE D., ZORAIDA                                                00IPSTAUCL              *
020308993900000000000010000PEROZO, CARMEN                                                        00IPSTAUCL              *
020309414200000000000010000JIMENEZ DE M, GLORIA                                                  00IPSTAUCL              *
020309793000000000000010000REYES R., NOHEMY                                                      00IPSTAUCL              *
020311649800000000000010000HUMBRIA V., HILDA R.                                                  00IPSTAUCL              *
020312205200000000000010000JAIMES S., GUSTAVO L.                                                 00IPSTAUCL              *
0240121886Y0315470200000000000010000ALMAO DE T., GLADYS                                                   00IPSTAUCL              *
020318015500000000000010000OJEDA H, RAFAEL                                                       00IPSTAUCL              *
0240110428M0318987900000000000010000BARCELO, LUIS J.                                                      00IPSTAUCL              *
020321218400000000000010000PARILLI DE M., BELEN                                                  00IPSTAUCL              *
020321317000000000000010000CRUZ DE B., FLORA                                                     00IPSTAUCL              *
020322898400000000000010000ROJAS, FREDDY                                                         00IPSTAUCL              *
020323814000000000000010000RAMOS DE S., NILDA                                                    00IPSTAUCL              *
020324402400000000000010000VASQUEZ DE G., CARMEN                                                 00IPSTAUCL              *
020327859200000000000010000LEON, CARLOS A.                                                       00IPSTAUCL              *
020331402700000000000010000MELENDEZ, ESTHER M.                                                   00IPSTAUCL              *
020331428300000000000010000PARADAS DE M., HILDA                                                  00IPSTAUCL              *
020331431900000000000010000RAMIREZ, MARLENE                                                      00IPSTAUCL              *
020331437300000000000010000GOMEZ P., LUIS R.                                                     00IPSTAUCL              *
020331443700000000000010000MENDOZA DE L., IRMA                                                   00IPSTAUCL              *
0240110230S0331567800000000000010000ALVAREZ D., HERNAN A.                                                 00IPSTAUCL              *
0240110160U0331665600000000000010000ALVARADO T., ELITA                                                    00IPSTAUCL              *
020331672400000000000010000DORANTE, ALICIA B.                                                    00IPSTAUCL              *
020331676500000000000010000REYES S., HONORIO C.                                                  00IPSTAUCL              *
020331678800000000000010000NOGUERA, NELY                                                         00IPSTAUCL              *
020331693700000000000010000GONZALEZ, CARMEN Y.                                                   00IPSTAUCL              *
020331697000000000000010000RAMIREZ DE V., RAIZA                                                  00IPSTAUCL              *
020331718700000000000010000MUJICA S, OSWALDO R                                                   00IPSTAUCL              *
020331740000000000000010000MEDINA DE M., MAURA C.                                                00IPSTAUCL              *
020331794600000000000010000PERAZA DE Y., EGLEE                                                   00IPSTAUCL              *
020331808700000000000010000VASQUEZ R., LUISA                                                     00IPSTAUCL              *
020331832000000000000010000ECHEVERRIA, GLADYS                                                    00IPSTAUCL              *
02        10331839600000000000010000SOTELDO, MARIA ISIDORA                                                00IPSTAUCL              *
0240115950M0331841500000000000010000ALVARADO DE A., RITA                                                  00IPSTAUCL              *
020331875700000000000010000PENA, RAMON                                                           00IPSTAUCL              *
020331893000000000000010000MORENO, CARLOS M.                                                     00IPSTAUCL              *
020331919700000000000010000RIVERO, HANSY                                                         00IPSTAUCL              *
020332018100000000000010000COLMENAREZ, OSCAR                                                     00IPSTAUCL              *
020332026800000000000010000RIERA, HENRY J                                                        00IPSTAUCL              *
020332049600000000000010000VALENZUELA T., DELICIA                                                00IPSTAUCL              *
0240110691M0332063100000000000010000CASTILLO S., REGULO R.                                                00IPSTAUCL              *
020332072600000000000010000GOYO DE E., YOLANDA                                                   00IPSTAUCL              *
020332072900000000000010000LUCENA E., DILCIA C.                                                  00IPSTAUCL              *
020332073500000000000010000REYES, CARMEN V.                                                      00IPSTAUCL              *
0240110344Y0332079900000000000010000BORREGALES M., PASTOR A.                                              00IPSTAUCL              *
020332083900000000000010000SANTANA, ALONSO                                                       00IPSTAUCL              *
020332098300000000000010000COLMENAREZ DE R., NELLY                                               00IPSTAUCL              *
020332138500000000000010000GONZALEZ, ALFREDO                                                     00IPSTAUCL              *
020332155400000000000010000DORANTE DE B., MARITZA                                                00IPSTAUCL              *
020332219400000000000010000GODOY, GAUDIO                                                         00IPSTAUCL              *
020332266300000000000010000GARCIA, NANCY J.                                                      00IPSTAUCL              *
020332326500000000000010000COLMENAREZ, MAGALI                                                    00IPSTAUCL              *
020332342600000000000010000VASQUEZ, GOODMARO                                                     00IPSTAUCL              *
020332372900000000000010000FORTOUL, EDDY M.                                                      00IPSTAUCL              *
020332409700000000000010000GIL, LUIS                                                             00IPSTAUCL              *
020332436800000000000010000RIVAS DE C., AURA                                                     00IPSTAUCL              *
0240119997D0332482600000000000010000PICHARDO A., JESUS O.                                                 00IPSTAUCL              *
020332491200000000000010000CARRILLO DE A., AGUSTINA                                              00IPSTAUCL              *
020333878000000000000010000DIAZ, ANGEL L.                                                        00IPSTAUCL              *
020335358900000000000010000RODRIGUEZ, ANGELA                                                     00IPSTAUCL              *
020336770200000000000010000FONSECA, GLADYS                                                       00IPSTAUCL              *
0240110030M0344084900000000000010000ACOSTA C., JOSE                                                       00IPSTAUCL              *
020344471100000000000010000CRESPO, VIRGINIA                                                      00IPSTAUCL              *
020344549700000000000010000MEJIAS A., MAYOLI                                                     00IPSTAUCL              *
020344567700000000000010000CASTILLO DE V, HILDA                                                  00IPSTAUCL              *
020344684000000000000010000FIGUEROA L, ANTONIO                                                   00IPSTAUCL              *
020345864300000000000010000QUINTERO, NORMA                                                       00IPSTAUCL              *
020346937900000000000010000HERNANDEZ, ELIAS                                                      00IPSTAUCL              *
020347251300000000000010000SOTO, ANA CECILIA                                                     00IPSTAUCL              *
020347983400000000000010000ESPINOZA DE AVELEDO, MARIA                                            00IPSTAUCL              *
020348351600000000000010000SANOJA C., JOSE A.                                                    00IPSTAUCL              *
020348549600000000000010000ROSALES, FRANCEE L.                                                   00IPSTAUCL              *
020352833700000000000010000TORRES U., DORIS S.                                                   00IPSTAUCL              *
020352839100000000000010000SANCHEZ, COROMOTO                                                     00IPSTAUCL              *
020352929600000000000010000COLMENAREZ, FRANCISCO J.                                              00IPSTAUCL              *
0240110348C0353322700000000000010000BRITO, DANILO                                                         00IPSTAUCL              *
020353323300000000000010000DURAN, RAFAEL                                                         00IPSTAUCL              *
020353345400000000000010000GONZALES P., HUGO R.                                                  00IPSTAUCL              *
020353357000000000000010000MENDEZ, ANA V.                                                        00IPSTAUCL              *
020353379700000000000010000GIMENEZ, TAMAIRA S.                                                   00IPSTAUCL              *
020353409100000000000010000MUNOS, ALEXANDER                                                      00IPSTAUCL              *
020353421900000000000010000OLIVETTI DE L., CARMEN                                                00IPSTAUCL              *
020353461100000000000010000GUTIERREZ L., ADELIS J.                                               00IPSTAUCL              *
020353499100000000000010000RODRIGUEZ, GLADYS                                                     00IPSTAUCL              *
020353537500000000000010000ESCALONA, ANGEL P.                                                    00IPSTAUCL              *
020353599800000000000010000OVIEDO DE L., OLFA                                                    00IPSTAUCL              *
020353604100000000000010000SILVA DE SPINIELLO, MIRTA                                             00IPSTAUCL              *
020353620900000000000010000SALCEDO DE V., MARINA A.                                              00IPSTAUCL              *
020353685200000000000010000COLMENAREZ, FRANK                                                     00IPSTAUCL              *
020353686500000000000010000DAVILA DE A., GRACIELA M.                                             00IPSTAUCL              *
020353728600000000000010000RESTREPO, ELBA                                                        00IPSTAUCL              *
0240119035B0353731100000000000010000BUSTILLOS, ANGEL A.                                                   00IPSTAUCL              *
020353753900000000000010000GOMEZ  G, HERLINDA R                                                  00IPSTAUCL              *
020353795800000000000010000GONZALEZ, ZENAIDA                                                     00IPSTAUCL              *
0240110537A0353849800000000000010000CASTILLO, CARMEN E.                                                   00IPSTAUCL              *
020353861700000000000010000ABARCA DE G., MIREYA DEL C.                                           00IPSTAUCL              *
020353891600000000000010000PEROZO, JUAN S.                                                       00IPSTAUCL              *
020353915700000000000010000PEREZ O., JULIO C.                                                    00IPSTAUCL              *
020353916500000000000010000RODRIGUEZ, MERCEDES A.                                                00IPSTAUCL              *
020353934600000000000010000LUCENA, LIVIA                                                         00IPSTAUCL              *
020353951600000000000010000MARTINEZ M., LUIS R.                                                  00IPSTAUCL              *
020353962800000000000010000HIM BUENO, YESPIN M.                                                  00IPSTAUCL              *
020353978800000000000010000COLMENAREZ DE M, CELIA C                                              00IPSTAUCL              *
0240111407E0354017300000000000010000CANELON DE G., GLADYS                                                 00IPSTAUCL              *
0240110081D0354035800000000000010000ARANGUREN DE C., AURISTELA                                            00IPSTAUCL              *
020354041000000000000010000PEREZ, MIRIAN                                                         00IPSTAUCL              *
020354046100000000000010000QUINTERO DE P., YOLANDA                                               00IPSTAUCL              *
020354048200000000000010000YEPEZ, CARLOS E.                                                      00IPSTAUCL              *
020354064800000000000010000RODRIGUEZ C., VILMA R.                                                00IPSTAUCL              *
020354065200000000000010000GONZALEZ, LADY F.                                                     00IPSTAUCL              *
02000000000354074500000000000010000GOMEZ G, HERMINIA M                                                   00IPSTAUCL              *
020354106300000000000010000GONZALEZ F, ORLANDO                                                   00IPSTAUCL              *
020354144300000000000010000GOMEZ DE S, ANA L                                                     00IPSTAUCL              *
020354148300000000000010000YEPEZ PRADO, ARLINE C.                                                00IPSTAUCL              *
020354151200000000000010000FIGUEROA DE M., PASTORA                                               00IPSTAUCL              *
0240110415G0354169000000000000010000BORGES DE C., MARITZA                                                 00IPSTAUCL              *
020354169800000000000010000SUAREZ, JOSE C.                                                       00IPSTAUCL              *
020354173800000000000010000LAIRET DE Z., EDITH                                                   00IPSTAUCL              *
020354194500000000000010000MORA, AURA M.                                                         00IPSTAUCL              *
020354201400000000000010000MONTES DE OCA, EGILDA                                                 00IPSTAUCL              *
020354217100000000000010000PALENCIA, MARNIO                                                      00IPSTAUCL              *
020354245500000000000010000CRESPO DE C, TEODULA M                                                00IPSTAUCL              *
0240116335H0354282000000000000010000BULLONES DE C., ROSALINDA                                             00IPSTAUCL              *
0240113593S0354282200000000000010000BULLONES DE Z., YUMAR                                                 00IPSTAUCL              *
020354287100000000000010000BULLONES DE P., NEPGIVIA                                              00IPSTAUCL              *
0240110434B0355279400000000000010000BOCARANDA DE L., LOURDES                                              00IPSTAUCL              *
020355801100000000000010000HERNANDEZ B., JOYCE M.                                                00IPSTAUCL              *
020356184100000000000010000PEREZ, CLARA M.                                                       00IPSTAUCL              *
020359428300000000000010000RONDON DE S., MARCIA                                                  00IPSTAUCL              *
020362111600000000000010000RAMIREZ M., ANA J.                                                    00IPSTAUCL              *
020362431200000000000010000MEDINA J., EVELYN M.                                                  00IPSTAUCL              *
020362469300000000000010000VALENZUELA DE S., AIDA                                                00IPSTAUCL              *
0240119940X0362733600000000000010000CASTELLANO DE M., GISELA                                              00IPSTAUCL              *
020362796700000000000010000ISTURIZ A., RUBEN A                                                   00IPSTAUCL              *
020362862500000000000010000DELGADO C., ANA C.                                                    00IPSTAUCL              *
020365223100000000000010000PRADO DE M., ANA D.                                                   00IPSTAUCL              *
020366454000000000000010000DUIN, ELIZABETH                                                       00IPSTAUCL              *
0240118074R0366460000000000000010000MARTINEZ, HEBER M.                                                    00IPSTAUCL              *
020370612500000000000010000OROPEZA C., DALIA                                                     00IPSTAUCL              *
020372882600000000000010000MORA, NELLY                                                           00IPSTAUCL              *
020373600200000000000010000ROMAN G., OLGA                                                        00IPSTAUCL              *
020375100000000000000010000FERNANDEZ DE B, YANIRA                                                00IPSTAUCL              *
020375928100000000000010000VELIZ, LUDMILA                                                        00IPSTAUCL              *
020376504200000000000010000SUAREZ, CARLOS E.                                                     00IPSTAUCL              *
020376673600000000000010000LOPEZ DE S., ROSA                                                     00IPSTAUCL              *
020378326900000000000010000GONZALES, RICARDO                                                     00IPSTAUCL              *
020378379100000000000010000SEGOVIA G., CARMEN                                                    00IPSTAUCL              *
020378450000000000000010000GONZALEZ, ELIO A.                                                     00IPSTAUCL              *
020378613700000000000010000PARGAS, ANTONIO                                                       00IPSTAUCL              *
020378773300000000000010000PERAZA E, FRANCISCO J                                                 00IPSTAUCL              *
020378893700000000000010000LOPEZ DE TK., GLORIA                                                  00IPSTAUCL              *
0240111764J0379105300000000000010000CHACON, CARMEN A.                                                     00IPSTAUCL              *
020379412400000000000010000ROBALLO, LUIS                                                         00IPSTAUCL              *
020381714000000000000010000JUSTINIANI, XIOMARA                                                   00IPSTAUCL              *
0240113109M0381953000000000000010000CABALLERO, CATALINA DEL C.                                            00IPSTAUCL              *
020383543500000000000010000LINAREZ, CARMEN C.                                                    00IPSTAUCL              *
020384383600000000000010000MARTINEZ DE O., ZURAIMA                                               00IPSTAUCL              *
0240116309Y0384852900000000000010000ALVAREZ V., ALFREDO J.                                                00IPSTAUCL              *
0210385500200000000000010000VARGAS, ANA L.                                                        00IPSTAUCL              *
020385513700000000000010000DIAZ DE C., DEBORA                                                    00IPSTAUCL              *
020385514600000000000010000MENDOZA, EFRAIN J.                                                    00IPSTAUCL              *
020385524700000000000010000GRATEROL DE C., HILDA                                                 00IPSTAUCL              *
020385543200000000000010000CHAVEZ DE B., MAYDA                                                   00IPSTAUCL              *
020385549800000000000010000MORA, SARA                                                            00IPSTAUCL              *
0240110538K0385558800000000000010000CARRILLO, BLADIMIR                                                    00IPSTAUCL              *
020385628400000000000010000DELGADO, DILCIA                                                       00IPSTAUCL              *
020385632900000000000010000GRANADOS, YUDITH                                                      00IPSTAUCL              *
020385633100000000000010000PARRA C., PASTOR                                                      00IPSTAUCL              *
020385635500000000000010000COELLO, MIGDALIA                                                      00IPSTAUCL              *
020385667600000000000010000MARTINEZ, RAUL                                                        00IPSTAUCL              *
020385721600000000000010000RODRIGUEZ D, CARMEN H                                                 00IPSTAUCL              *
0240119979S0385722500000000000010000BASTIDAS R., BELEN L.                                                 00IPSTAUCL              *
020385727600000000000010000BARTOLOME, YOLANDA C.                                                 00IPSTAUCL              *
0240120501R0385774300000000000010000CASTILLO DE A., MIREYA                                                00IPSTAUCL              *
020385780600000000000010000DIAZ J., JOSE F.                                                      00IPSTAUCL              *
020385805500000000000010000GONZALEZ, CLARET M.                                                   00IPSTAUCL              *
0240110133D0385831100000000000010000ARTIGAS DE C., MARIA L.                                               00IPSTAUCL              *
020385844900000000000010000ZULETA, CESAR A.                                                      00IPSTAUCL              *
020385847900000000000010000TORREALBA, EULER                                                      00IPSTAUCL              *
020385853000000000000010000LEAL, GUILLERMINA                                                     00IPSTAUCL              *
020385884800000000000010000GARCIA DE P., DOMINGA                                                 00IPSTAUCL              *
020385889000000000000010000ZAGO A., GIANCARLOS                                                   00IPSTAUCL              *
0240110085H0385901000000000000010000ALVARADO, MIREYA                                                      00IPSTAUCL              *
0240114882V0385935000000000000010000CAMACHO C., RAFAEL                                                    00IPSTAUCL              *
020385958000000000000010000RAMIREZ A., LAURA V.                                                  00IPSTAUCL              *
020385976300000000000010000VILLABONA DE A, JUDITH                                                00IPSTAUCL              *
020386019700000000000010000MARTINEZ DE M., ADELA                                                 00IPSTAUCL              *
020386030200000000000010000SOSA T., MARCELINO                                                    00IPSTAUCL              *
020386033400000000000010000PEREZ, ANGEL                                                          00IPSTAUCL              *
020386066000000000000010000ENCINOZA DE J., HAIDEE                                                00IPSTAUCL              *
0240114515U0386070300000000000010000ARENAS DE B., PETRA                                                   00IPSTAUCL              *
020386093800000000000010000PUERTA, JUAN R.                                                       00IPSTAUCL              *
020386102900000000000010000ESCOBAR, VALENTIN                                                     00IPSTAUCL              *
020386117600000000000010000MENDEZ DE L., MARIA                                                   00IPSTAUCL              *
020386120200000000000010000AGUILAR A., ENIO J.                                                   00IPSTAUCL              *
020386125600000000000010000GIL DE G., SOLWEY                                                     00IPSTAUCL              *
020386130300000000000010000VIVAS R., HENRY P.                                                    00IPSTAUCL              *
020386139500000000000010000YANEZ V., IRMA                                                        00IPSTAUCL              *
020386153700000000000010000MOREIRA M., EVELIO E.                                                 00IPSTAUCL              *
020386213000000000000010000OIRDOBRO, RAFAEL                                                      00IPSTAUCL              *
020386220900000000000010000VILLEGAS, CARLOS                                                      00IPSTAUCL              *
020386228100000000000010000ROJAS DE A., LUISA E.                                                 00IPSTAUCL              *
020386240200000000000010000OCHOA DE P., NELLY                                                    00IPSTAUCL              *
0240120044R0386250500000000000010000ARENAS DE S., MERI B.                                                 00IPSTAUCL              *
020386279400000000000010000GRATEROL, SILVIA P.                                                   00IPSTAUCL              *
0240110041L0386279700000000000010000AVENDANO Q., JOSE G.                                                  00IPSTAUCL              *
0240110016B0386305300000000000010000ANGULO DE L., MILVIDA                                                 00IPSTAUCL              *
020386311100000000000010000FUENTES DE M., CARMEN C.                                              00IPSTAUCL              *
020386333000000000000010000SANCHEZ DE H., AURA M.                                                00IPSTAUCL              *
020386348400000000000010000VASQUEZ M., LUIS B.                                                   00IPSTAUCL              *
020386351300000000000010000SEGURA, HECTOR J.                                                     00IPSTAUCL              *
020386353400000000000010000GONZALEZ, DOMINGO E.                                                  00IPSTAUCL              *
020386368800000000000010000GARMENDIA DE D, COROMOTO                                              00IPSTAUCL              *
020386407600000000000010000PENALVER A, MERCEDES                                                  00IPSTAUCL              *
020386411000000000000010000GARRIDO, INGRID                                                       00IPSTAUCL              *
0240110639Y0386415700000000000010000CAPDEVILLA, ROSA                                                      00IPSTAUCL              *
020386425400000000000010000RIVERO, ELISA                                                         00IPSTAUCL              *
020386470600000000000010000ASUAJE C., JUANA D.                                                   00IPSTAUCL              *
020386801900000000000010000SANCHEZ, ROSELIANO                                                    00IPSTAUCL              *
020386966600000000000010000PARRA DE T., HERLINDA                                                 00IPSTAUCL              *
0240116591T0387527900000000000010000BRICENO DE R., NOHEMY                                                 00IPSTAUCL              *
020387691000000000000010000LINAREZ G., OMAR A.                                                   00IPSTAUCL              *
020387716100000000000010000GUERRA, AMELIA                                                        00IPSTAUCL              *
020387823700000000000010000DIAZ A., MAGALY                                                       00IPSTAUCL              *
020387875000000000000010000PEREZ S., MARGARET                                                    00IPSTAUCL              *
020388466700000000000010000ESCOBAR, JAIME                                                        00IPSTAUCL              *
0210388786300000000000010000MALDONADO, JAZMIN                                                     00IPSTAUCL              *
020389153900000000000010000GUILLEN D., GISELA                                                    00IPSTAUCL              *
020390518100000000000010000RODRIGUEZ D., FANNY                                                   00IPSTAUCL              *
020390702300000000000010000SIMANCAS DE V., MARISELA M.                                           00IPSTAUCL              *
020391375500000000000010000RIVERO, LUCIA                                                         00IPSTAUCL              *
020392891500000000000010000RINCON V., MILO A.                                                    00IPSTAUCL              *
020394817600000000000010000OROPEZA DE H., LOURDES                                                00IPSTAUCL              *
020396404600000000000010000PUCHE, INES D.                                                        00IPSTAUCL              *
020397826100000000000010000ROJAS DE M., CARMEN Y.                                                00IPSTAUCL              *
020398355700000000000010000MORENO E., CARLOS A.                                                  00IPSTAUCL              *
020399403600000000000010000VERA U., RAFAEL A.                                                    00IPSTAUCL              *
020400044100000000000010000RAMIREZ S, NANCY L                                                    00IPSTAUCL              *
020400732500000000000010000QUERALES, NANCY                                                       00IPSTAUCL              *
020402152100000000000010000DIAZ D, JOSE  J                                                       00IPSTAUCL              *
020406418500000000000010000QUERO, ADELA                                                          00IPSTAUCL              *
020406422000000000000010000GARCIA DE L., IRIS G.                                                 00IPSTAUCL              *
0240110003P0406441200000000000010000ALVARADO DE A., MIRTHA                                                00IPSTAUCL              *
020406449200000000000010000PEREZ DE Y., NELLY                                                    00IPSTAUCL              *
0240110751Y0406449500000000000010000CALLES DE P., MARIA DEL R.                                            00IPSTAUCL              *
020406466200000000000010000GARCIA DE A., LILIA                                                   00IPSTAUCL              *
020406467000000000000010000RAMOS V., FEDERICO A.                                                 00IPSTAUCL              *
020406481200000000000010000ESPINOZA DE U., JOSEFA M.                                             00IPSTAUCL              *
020406488800000000000010000CASTILLO, HELIOPOLIS DE J.                                            00IPSTAUCL              *
020406534700000000000010000SILVA, MARIA N.                                                       00IPSTAUCL              *
020406551500000000000010000UZCATEGUI DE M., DARCY                                                00IPSTAUCL              *
020406557800000000000010000ARRIECHE T, ADELA P                                                   00IPSTAUCL              *
020406559100000000000010000NOGUERA DE P., BEYSI                                                  00IPSTAUCL              *
0240110515C0406590300000000000010000CALLES DE C., MARIA M.                                                00IPSTAUCL              *
020406602900000000000010000ROJAS, WILLIAM                                                        00IPSTAUCL              *
020406608400000000000010000DUDAMEL C., MARIO J.                                                  00IPSTAUCL              *
020406612200000000000010000MONTEZUMA DE C., YSBENIA P.                                           00IPSTAUCL              *
020406625600000000000010000MENDOZA, MARIA A.                                                     00IPSTAUCL              *
020406626000000000000010000GOMEZ, ELIONOR                                                        00IPSTAUCL              *
020406632400000000000010000PEREZ, ANA ROSA                                                       00IPSTAUCL              *
020406635400000000000010000PENA DE R., REINA                                                     00IPSTAUCL              *
020406660200000000000010000FRANCO S., GERMAN F.                                                  00IPSTAUCL              *
020406679600000000000010000SUAREZ DUGARTE, MIRIAN                                                00IPSTAUCL              *
020406694400000000000010000LAU DANG, EMILIA                                                      00IPSTAUCL              *
020406722800000000000010000MENDEZ O., IRAIDA                                                     00IPSTAUCL              *
020406760700000000000010000CALATAYUD DE C., ALICIA                                               00IPSTAUCL              *
020406766800000000000010000TORRES DE C., MARIELA                                                 00IPSTAUCL              *
020406772700000000000010000TORREZ, PASTOR A.                                                     00IPSTAUCL              *
020406811800000000000010000MACHADO V., GLORIA                                                    00IPSTAUCL              *
020406844800000000000010000RIVERO, ESTHER                                                        00IPSTAUCL              *
020406848800000000000010000HERNANDEZ S., RITA DEL C.                                             00IPSTAUCL              *
0240113760U0406893900000000000010000DOMINGUEZ, ORLANDO DE J.                                              00IPSTAUCL              *
020406913100000000000010000SILVA D., LILA                                                        00IPSTAUCL              *
0240111844B0406915300000000000010000LOZADA I., CARMEN C.                                                  00IPSTAUCL              *
020406920600000000000010000TORRES, GERARDO                                                       00IPSTAUCL              *
020406921000000000000010000MUJICA DE C., MARIELA                                                 00IPSTAUCL              *
020406943100000000000010000MORILLO DE M., JUSTA J.                                               00IPSTAUCL              *
020406967600000000000010000MONTERO, RAMON A.                                                     00IPSTAUCL              *
020406986700000000000010000ESCALONA, NELLY                                                       00IPSTAUCL              *
020407033000000000000010000KAZEN, MIRYENI                                                        00IPSTAUCL              *
020407038700000000000010000ODREMAN, ANIBAL                                                       00IPSTAUCL              *
0240118985G0407073200000000000010000ALVAREZ DE S., CAROLINA                                               00IPSTAUCL              *
020407088300000000000010000COLMENAREZ, JOSE D.                                                   00IPSTAUCL              *
0240118474P0407096700000000000010000PENA P., MARGOT                                                       00IPSTAUCL              *
0240116563E0407101000000000000010000BARRETO DE A., EGLEE                                                  00IPSTAUCL              *
020407106700000000000010000MALAVE, ELOY                                                          00IPSTAUCL              *
020407119000000000000010000URDANETA, EDDY Y.                                                     00IPSTAUCL              *
0241311369T0407139000000000000010000BRICENO DE M., NILCE                                                  00IPSTAUCL              *
0240113329Q0407142600000000000010000CASTILLO, OLGA M.                                                     00IPSTAUCL              *
020407146900000000000010000ROMERO DE Q., BEATRIZ E.                                              00IPSTAUCL              *
020407147300000000000010000DIAZ, MAYELA I.                                                       00IPSTAUCL              *
020407148300000000000010000NUNEZ A, CARLOS                                                       00IPSTAUCL              *
0240110744Z0407176800000000000010000CARRILLO, LIDIAN                                                      00IPSTAUCL              *
020407177400000000000010000FERNANDEZ, JOSE R.                                                    00IPSTAUCL              *
020407189500000000000010000MELENDEZ DE O, SILVIA C                                               00IPSTAUCL              *
020407235700000000000010000SOTELDO, YOLANDA                                                      00IPSTAUCL              *
0240116624B0407284500000000000010000BUSTILLOS A., SANDRA M.                                               00IPSTAUCL              *
020407322900000000000010000SALAS, ELIO                                                           00IPSTAUCL              *
020407335700000000000010000MENDOZA DE C., MARLENE                                                00IPSTAUCL              *
020407344000000000000010000QUINTERO, CONSUELO                                                    00IPSTAUCL              *
020407351700000000000010000DAVILA L., MARIA L.                                                   00IPSTAUCL              *
020407362500000000000010000SUAREZ, LUISA E.                                                      00IPSTAUCL              *
020407373200000000000010000DIAZ, JULIO CESAR                                                     00IPSTAUCL              *
020414377100000000000010000CHOURIO, ALFONZO                                                      00IPSTAUCL              *
020415107800000000000010000VIEZ, MARIELA                                                         00IPSTAUCL              *
020416517400000000000010000RIVERO Z., LILIAM M.                                                  00IPSTAUCL              *
020416998300000000000010000GUTIERREZ, OMAR                                                       00IPSTAUCL              *
020417337800000000000010000SANCHEZ M., MARGOT C.                                                 00IPSTAUCL              *
0240119803K0418126900000000000010000BRICENO O., WILMAN J.                                                 00IPSTAUCL              *
020419139500000000000010000MENDOZA DE A., MERY L.                                                00IPSTAUCL              *
0240117750W0419153400000000000010000ALVAREZ DE F., MIRIAM M.                                              00IPSTAUCL              *
020419195700000000000010000NAVAS, ERNESTA M.                                                     00IPSTAUCL              *
020419254500000000000010000QUERO DE K., MIREYA                                                   00IPSTAUCL              *
020419407000000000000010000MELENDEZ A., JOSE R.                                                  00IPSTAUCL              *
020419596500000000000010000MARCHAN, ERNESTO W.                                                   00IPSTAUCL              *
020419600200000000000010000SANCHEZ, EDGAR                                                        00IPSTAUCL              *
020419725300000000000010000RODRIGUEZ Q., DORIS M.                                                00IPSTAUCL              *
020420033300000000000010000HERNANDEZ, ROUTMAN J.                                                 00IPSTAUCL              *
020424774300000000000010000FAGUNDEZ DE M., MARYORI T.                                            00IPSTAUCL              *
020425795200000000000010000LEDEZMA C., GLADYS T.                                                 00IPSTAUCL              *
020426575400000000000010000SEGOVIA, ROSA A.                                                      00IPSTAUCL              *
020427131000000000000010000LEMAIRE DE A., FRANCES                                                00IPSTAUCL              *
020431446100000000000010000INFANTE, GILBERTO                                                     00IPSTAUCL              *
020431972400000000000010000VALECILLOS, ESPERANZA                                                 00IPSTAUCL              *
020432278500000000000010000GODOY, MARITZA J.                                                     00IPSTAUCL              *
020434077000000000000010000RODRIGUEZ, RIGOBERTO                                                  00IPSTAUCL              *
0240119906J0434235700000000000010000ALVAREZ CH., YADIRA J.                                                00IPSTAUCL              *
020434236900000000000010000MOLINA DE CH., MARIA E.                                               00IPSTAUCL              *
020434243300000000000010000RAMIREZ, MORALIA                                                      00IPSTAUCL              *
0244577104H0434262900000000000010000MUJICA M., HILDA CH.                                                  00IPSTAUCL              *
020434372400000000000010000BORA Y., ANA M.                                                       00IPSTAUCL              *
020437312400000000000010000MIRANDA G., OMAR                                                      00IPSTAUCL              *
020437323000000000000010000DURAN DE R., IRIS                                                     00IPSTAUCL              *
020437332700000000000010000BRITO H., FREDY R.                                                    00IPSTAUCL              *
020437359300000000000010000FREYTEZ, VALMORE                                                      00IPSTAUCL              *
020437390800000000000010000YAJURE, RAFAEL A.                                                     00IPSTAUCL              *
020437432100000000000010000RUIZ C., FANNY                                                        00IPSTAUCL              *
020437496900000000000010000DIAZ Q., RENELDO                                                      00IPSTAUCL              *
020437520700000000000010000ECHEVERRIA A., NANCY C.                                               00IPSTAUCL              *
0240110347T0437543500000000000010000BARRANCO C., MORELLA M.                                               00IPSTAUCL              *
020437564900000000000010000PEREZ, AURA ROSA                                                      00IPSTAUCL              *
020437590400000000000010000PINA R., ELSA M.                                                      00IPSTAUCL              *
020437623400000000000010000PEREZ, EDWIN                                                          00IPSTAUCL              *
020437635300000000000010000LACLE DE R., LAURA                                                    00IPSTAUCL              *
020437641500000000000010000PRAYS DE CH., YOLETTE                                                 00IPSTAUCL              *
020437642700000000000010000TORRES C., HUGO R.                                                    00IPSTAUCL              *
020437722300000000000010000SANCHEZ DE G., MAGALY                                                 00IPSTAUCL              *
020437722400000000000010000SUAREZ DE S., MAGALY                                                  00IPSTAUCL              *
020437723000000000000010000PINANGO, OLGA                                                         00IPSTAUCL              *
020437784700000000000010000ALJORNA DE L., ANA                                                    00IPSTAUCL              *
020437785200000000000010000VEGAS, RAFAEL JOSE                                                    00IPSTAUCL              *
020437814500000000000010000EVIES DE F, JUANA                                                     00IPSTAUCL              *
020437833500000000000010000ORTIZ J., ORLANDO J.                                                  00IPSTAUCL              *
020437891800000000000010000DIAZ DE R., DERMINA DEL C.                                            00IPSTAUCL              *
0240112101C0437894000000000000010000MARTINEZ, BELKIS                                                      00IPSTAUCL              *
020437901900000000000010000RODRIGUEZ, YUDITH                                                     00IPSTAUCL              *
0240110615Q0437911400000000000010000CARO, ELIAS A.                                                        00IPSTAUCL              *
0240118168U0437937000000000000010000CAMACHO, JUDITH                                                       00IPSTAUCL              *
020437951600000000000010000RIVERO, BLAS A.                                                       00IPSTAUCL              *
020437961100000000000010000GARCIA G, RAFAEL J                                                    00IPSTAUCL              *
020437970000000000000010000GONZALEZ G., ROMER R.                                                 00IPSTAUCL              *
020437973600000000000010000PERALTA DE G., GISELA C.                                              00IPSTAUCL              *
020437975400000000000010000DELGADO DE A., GRACIELA                                               00IPSTAUCL              *
0240121957E0437975800000000000010000CASTILLO G., YOMAIRA J.                                               00IPSTAUCL              *
020437982200000000000010000LINAREZ T., ALBA A.                                                   00IPSTAUCL              *
020437985000000000000010000RODRIGUEZ, INGRID                                                     00IPSTAUCL              *
020438056400000000000010000LUCENA, LILIAN                                                        00IPSTAUCL              *
0240110701X0438081900000000000010000CAMACARO, JORGE L.                                                    00IPSTAUCL              *
020438118700000000000010000SILVA DE B., ZORAIDA                                                  00IPSTAUCL              *
020438144600000000000010000BRITO, CRISTOBAL                                                      00IPSTAUCL              *
020438207400000000000010000AMARO, CARLOS                                                         00IPSTAUCL              *
020438227900000000000010000URDANETA, IVAN                                                        00IPSTAUCL              *
020438243000000000000010000PAEZ, AURA M.                                                         00IPSTAUCL              *
020438277000000000000010000ORTIZ, CARLOS A.                                                      00IPSTAUCL              *
020438291700000000000010000ISAACURA S., JUAN C.                                                  00IPSTAUCL              *
020438355100000000000010000GOTOPO P., RITA Z.                                                    00IPSTAUCL              *
0240117792D0438370500000000000010000ROJAS R., ANTONIO A.                                                  00IPSTAUCL              *
020438395700000000000010000SIERRA, JOSE ANGEL                                                    00IPSTAUCL              *
020438403000000000000010000HERNANDEZ, FARLEY                                                     00IPSTAUCL              *
020438437800000000000010000MENDOZA, LUIS G.                                                      00IPSTAUCL              *
020438448100000000000010000PENA DE R., ROSA                                                      00IPSTAUCL              *
020438502900000000000010000PEREZ, GEMA DE LA CH.                                                 00IPSTAUCL              *
020438503600000000000010000GARCIA, MARCOS                                                        00IPSTAUCL              *
0240110511G0438523000000000000010000CARRASCO, ADALBERTO J.                                                00IPSTAUCL              *
020438561200000000000010000PEREZ, DURVAL A.                                                      00IPSTAUCL              *
020438588000000000000010000OVIEDO, TEODORO C.                                                    00IPSTAUCL              *
020438592600000000000010000CARDENAS DE M., BEATRIZ                                               00IPSTAUCL              *
020438596900000000000010000PEROZO DE S., IRMA                                                    00IPSTAUCL              *
0240110503R0438663400000000000010000CASTILLO A., WILLAM                                                   00IPSTAUCL              *
020438714900000000000010000DAVILA, EDDY                                                          00IPSTAUCL              *
020438761800000000000010000GUTIERREZ, BRAULIO E.                                                 00IPSTAUCL              *
0243310027D0438767400000000000010000ARENDS, MINERVA                                                       00IPSTAUCL              *
020438796200000000000010000MAJANO DE G., ELIZABETH                                               00IPSTAUCL              *
020440777600000000000010000PEREZ, CONSUELO                                                       00IPSTAUCL              *
020440968700000000000010000PINERO, MARLENE                                                       00IPSTAUCL              *
020440968900000000000010000ROJAS M., DANIEL E.                                                   00IPSTAUCL              *
020441177400000000000010000COLMENAREZ, BOLIVIA DEL C.                                            00IPSTAUCL              *
020441394400000000000010000PEREZ DE H, SAGRARIO C                                                00IPSTAUCL              *
020441460100000000000010000TORRES C., VIRQUIS                                                    00IPSTAUCL              *
020441485400000000000010000COLMENAREZ, IRA S                                                     00IPSTAUCL              *
020442752200000000000010000COLINA, CANTALICIA                                                    00IPSTAUCL              *
020444448300000000000010000PULGAR, PABLO                                                         00IPSTAUCL              *
020447406400000000000010000OVIEDO, CARMEN Z.                                                     00IPSTAUCL              *
020447774200000000000010000VARGAS P., SINECIO                                                    00IPSTAUCL              *
020447865500000000000010000AGUILAR DE E, MARY Y                                                  00IPSTAUCL              *
020447884300000000000010000MENDOZA, MARLENE                                                      00IPSTAUCL              *
020452881500000000000010000PATINO, CIRO                                                          00IPSTAUCL              *
020458271500000000000010000GARCIA, CARLOS  E.                                                    00IPSTAUCL              *
020458538300000000000010000RODRIGUEZ, OSCAR                                                      00IPSTAUCL              *
020460257700000000000010000PERDOMO, WILFREDO A.                                                  00IPSTAUCL              *
020461203600000000000010000QUINTANA, MILAGRO DEL V.                                              00IPSTAUCL              *
020463881300000000000010000REYES R., ELIZABETH                                                   00IPSTAUCL              *
020465884700000000000010000TORRES, PASTOR                                                        00IPSTAUCL              *
020466271200000000000010000CORONADO, ALICIA                                                      00IPSTAUCL              *
020470402400000000000010000ROMERO R., KAIRIN J.                                                  00IPSTAUCL              *
020470529900000000000010000BARRAGAN, DAISY V.                                                    00IPSTAUCL              *
020472009700000000000010000ORELLANES, DAVID                                                      00IPSTAUCL              *
020472018000000000000010000COLMENAREZ S., ABDIA I.                                               00IPSTAUCL              *
0240110576R0472025500000000000010000CABAS C., EFRAIN                                                      00IPSTAUCL              *
020472030500000000000010000MENDOZA P., MIRIHAM C.                                                00IPSTAUCL              *
0240110677W0472039600000000000010000CAMPOS DE P., YENNY                                                   00IPSTAUCL              *
020472046700000000000010000CAMPOS P., ELIZABETH                                                  00IPSTAUCL              *
0240114643L0472085200000000000010000BARRANCO, MARIA E.                                                    00IPSTAUCL              *
020472142300000000000010000LOPEZ QUERO, MARITZA                                                  00IPSTAUCL              *
020472172900000000000010000RAMIREZ C., WILFREDO C.                                               00IPSTAUCL              *
020472359200000000000010000OROZCO DE CH, VICTORIA C                                              00IPSTAUCL              *
020472376600000000000010000MEDINA J., JORGE L.                                                   00IPSTAUCL              *
020472386900000000000010000ALVARADO, ANDREA A.                                                   00IPSTAUCL              *
020472402800000000000010000SOSA V., MARITZA                                                      00IPSTAUCL              *
020472523200000000000010000PUERTA DE G., MARGGI C.                                               00IPSTAUCL              *
020472530400000000000010000SANCHEZ DE R., MARIA                                                  00IPSTAUCL              *
020472614500000000000010000GUERRA, MELQUIADES E.                                                 00IPSTAUCL              *
020472621900000000000010000FALCON R., DILCIA C.                                                  00IPSTAUCL              *
020472639300000000000010000MORENO, ZORAIDA DEL C.                                                00IPSTAUCL              *
020472773300000000000010000GUERRERO, RAFAEL                                                      00IPSTAUCL              *
020472809900000000000010000LOPEZ, IVONNE                                                         00IPSTAUCL              *
020472836500000000000010000PERAZA DE R., MARLENE C.                                              00IPSTAUCL              *
020472842200000000000010000GARCIA DE B., MARLENIS C.                                             00IPSTAUCL              *
020472848300000000000010000GIL C., OTTO                                                          00IPSTAUCL              *
020472848400000000000010000MONTESINOS A., ELOY R.                                                00IPSTAUCL              *
020472903900000000000010000CHIRINOS, GLORIA                                                      00IPSTAUCL              *
0240114777J0472929000000000000010000ALBORNOZ, RUBEN D.                                                    00IPSTAUCL              *
0240118582C0472934900000000000010000CALLES, PEDRO                                                         00IPSTAUCL              *
020472974800000000000010000GONZALEZ, CARLOS F.                                                   00IPSTAUCL              *
020472985000000000000010000MUJICA, ALFREDO J.                                                    00IPSTAUCL              *
020472986100000000000010000SUAREZ C., LUISA S.                                                   00IPSTAUCL              *
020473018000000000000010000RODRIGUEZ, ALEXANDER                                                  00IPSTAUCL              *
020473028200000000000010000ROMERO, DALMIRO E.                                                    00IPSTAUCL              *
020473048200000000000010000MARCHAN M., MIRIAM                                                    00IPSTAUCL              *
020473119900000000000010000MORILLO A., GLADYS Y.                                                 00IPSTAUCL              *
020473128400000000000010000GARCIA, PEDRO                                                         00IPSTAUCL              *
0240110185A0473158000000000000010000ALVARADO, OLGA B.                                                     00IPSTAUCL              *
020473169300000000000010000LINAREZ S., CARMEN C.                                                 00IPSTAUCL              *
020473180400000000000010000MELENDEZ M., HECTOR A.                                                00IPSTAUCL              *
020473231800000000000010000COLMENAREZ, ARNOLDO                                                   00IPSTAUCL              *
0240110174N0473309400000000000010000ALVARADO, YIMMY P.                                                    00IPSTAUCL              *
020473335600000000000010000RAMIREZ E., ROLANDO                                                   00IPSTAUCL              *
020473350300000000000010000RODRIGUEZ, JORGE L.                                                   00IPSTAUCL              *
020473383800000000000010000FONSECA, NELSON                                                       00IPSTAUCL              *
020473392900000000000010000SATURNO, ESTHER G.                                                    00IPSTAUCL              *
020473417900000000000010000DIAZ P., GLADYS J.                                                    00IPSTAUCL              *
020473425800000000000010000VIRGUEZ, WILLIAM                                                      00IPSTAUCL              *
020473453600000000000010000GUANIPA, ISABEL                                                       00IPSTAUCL              *
020473454300000000000010000TUA M., FRANKLIN R.                                                   00IPSTAUCL              *
020473474100000000000010000BARRIOS, HORTENSIA S.                                                 00IPSTAUCL              *
020473533200000000000010000TORRES R., MERCEDES DEL M.                                            00IPSTAUCL              *
0240114887S0473635200000000000010000AMARO M., YAMILY                                                      00IPSTAUCL              *
020473703700000000000010000CRISTO N., OLGA                                                       00IPSTAUCL              *
0240118935D0473760000000000000010000BRIZON DE L., MARY R.                                                 00IPSTAUCL              *
020473828000000000000010000PALMA, BELKYS                                                         00IPSTAUCL              *
0240119260D0473831500000000000010000CAMPOS, XIOMARA                                                       00IPSTAUCL              *
0240110191G0473839900000000000010000ARROYO, JUAN J.                                                       00IPSTAUCL              *
020473854300000000000010000ALTUVE M., YADIRA Z.                                                  00IPSTAUCL              *
020473889400000000000010000ROBERTI N., JORGE L.                                                  00IPSTAUCL              *
020473892000000000000010000ROJAS, ELSY M.                                                        00IPSTAUCL              *
0240120566R0473964600000000000010000RIVAS M., BELKYS L.                                                   00IPSTAUCL              *
020477505300000000000010000PABON DE C., EMERITA                                                  00IPSTAUCL              *
020479586400000000000010000MELENDEZ L., OLGA O.                                                  00IPSTAUCL              *
0240122295G0479701800000000000010000SOLORZANO R., ISNARDO A.                                              00IPSTAUCL              *
020479863500000000000010000MACHUCA, VANEL R.                                                     00IPSTAUCL              *
020480168900000000000010000LAMEDA, NELSON                                                        00IPSTAUCL              *
020480299600000000000010000GONZALEZ G., GLORIA I.                                                00IPSTAUCL              *
020480338100000000000010000HERRERA C., TEODORO                                                   00IPSTAUCL              *
020480366700000000000010000VERDE, DELIA R.                                                       00IPSTAUCL              *
020480511000000000000010000LADINO, EUGENIA                                                       00IPSTAUCL              *
0240119271U0480558000000000000010000CARRASCO O., MARGOT                                                   00IPSTAUCL              *
0240116250Y0480596200000000000010000ALVAREZ DE L., FANNY                                                  00IPSTAUCL              *
020481372000000000000010000LOPEZ M., BEATRIZ                                                     00IPSTAUCL              *
020483684300000000000010000QUERO R., GERARDO R.                                                  00IPSTAUCL              *
020488659100000000000010000MARIN DE B., GLORIA                                                   00IPSTAUCL              *
020491775100000000000010000TERAN, OLGA                                                           00IPSTAUCL              *
020491938400000000000010000DAVILA, JULIO S.                                                      00IPSTAUCL              *
020495212100000000000010000BRAZON U, ELEAZAE J                                                   00IPSTAUCL              *
020496165900000000000010000ZAMBRANO H, OLGA R                                                    00IPSTAUCL              *
0240114873B0501079000000000000010000GIMENEZ DE O., YAHILILY                                               00IPSTAUCL              *
0240117986Y0502998600000000000010000CAPELLO G., MARIA L.                                                  00IPSTAUCL              *
0240120121B0505935900000000000010000AIZPURUA DE M., OFEMARI                                               00IPSTAUCL              *
020506726000000000000010000OMANA C., ELSA M.                                                     00IPSTAUCL              *
020510509300000000000010000CARDOZO S., JOSE E.                                                   00IPSTAUCL              *
020511628500000000000010000MEDINA R., CARLOS S.                                                  00IPSTAUCL              *
020512472300000000000010000NOGUERA P., MARIA E.                                                  00IPSTAUCL              *
020512491800000000000010000VILLAREAL, YOLANDA                                                    00IPSTAUCL              *
020513792600000000000010000GARCIA P., LOURDES J.                                                 00IPSTAUCL              *
020513889200000000000010000SEGURA, INGRID                                                        00IPSTAUCL              *
020516411500000000000010000SOTO DE S, NERIS                                                      00IPSTAUCL              *
020520002400000000000010000VARELA DE N., LUISA                                                   00IPSTAUCL              *
020520523900000000000010000RAMIREZ F., NANCY M.                                                  00IPSTAUCL              *
020521595000000000000010000CASTRO M., MIRIAM J.                                                  00IPSTAUCL              *
020523845500000000000010000REANO S., XIOMARA J.                                                  00IPSTAUCL              *
020523967700000000000010000GOMEZ, ANGEL A.                                                       00IPSTAUCL              *
020523982100000000000010000SILVA P., YAMELY V.                                                   00IPSTAUCL              *
020524015500000000000010000MEDINA, LUIS                                                          00IPSTAUCL              *
020524080600000000000010000TORREALBA E., EDDY                                                    00IPSTAUCL              *
020524210300000000000010000OSAL DE G, LUZ B                                                      00IPSTAUCL              *
020524211200000000000010000RODRIGUEZ C., ORLANDO M.                                              00IPSTAUCL              *
020524221200000000000010000ZAKARIAS W., GABRIELA                                                 00IPSTAUCL              *
020524262200000000000010000PEREZ DE M., BEATRIZ                                                  00IPSTAUCL              *
020524309400000000000010000STIFANO T., VENERANDA A.                                              00IPSTAUCL              *
020524373300000000000010000TUA DE CH., YAJAIRA                                                   00IPSTAUCL              *
0240110420R0524402500000000000010000BRITO, JOSE R.                                                        00IPSTAUCL              *
0240116446H0524405900000000000010000SILVA S., OSCAR                                                       00IPSTAUCL              *
020524416800000000000010000NARANJO, LUIS E.                                                      00IPSTAUCL              *
020524487600000000000010000PARRA DE G., RAQUEL P.                                                00IPSTAUCL              *
020524500300000000000010000ROMANO, MAIRA                                                         00IPSTAUCL              *
020524552300000000000010000MARTINEZ DE R., SANDRA                                                00IPSTAUCL              *
020524559900000000000010000DURAN, MARITZA A.                                                     00IPSTAUCL              *
020524586400000000000010000MEDINA DE A, NIVIA R                                                  00IPSTAUCL              *
020524586700000000000010000SOSA DE T., MERCEDES                                                  00IPSTAUCL              *
020524596000000000000010000PEREZ, ADA V.                                                         00IPSTAUCL              *
020524607600000000000010000RODRIGUEZ DE P., CARMEN S.                                            00IPSTAUCL              *
020524621200000000000010000URRIOLA C., LUIS E.                                                   00IPSTAUCL              *
020524624600000000000010000DIAZ Q., RAFAEL S.                                                    00IPSTAUCL              *
020524664500000000000010000ANGULO DE M., MARLENY                                                 00IPSTAUCL              *
020524689900000000000010000ROJAS, MAGDALENO DE J.                                                00IPSTAUCL              *
020524698100000000000010000MAITA, HUMBERTO J.                                                    00IPSTAUCL              *
020524699700000000000010000YEPEZ DE S., MARIA B.                                                 00IPSTAUCL              *
020524715900000000000010000FALCON, MILAGROS                                                      00IPSTAUCL              *
020524717300000000000010000MONTES C., RAFAEL A.                                                  00IPSTAUCL              *
020524744300000000000010000DIAZ N., CECILIA C.                                                   00IPSTAUCL              *
020524753800000000000010000SALAZAR R., THAIS C.                                                  00IPSTAUCL              *
020524756400000000000010000GUEDEZ, HECTOR                                                        00IPSTAUCL              *
020524788600000000000010000SOLANO R., REBECA                                                     00IPSTAUCL              *
020524828200000000000010000TUA, WILMER                                                           00IPSTAUCL              *
020524874200000000000010000LEIVA, VERONICA                                                       00IPSTAUCL              *
020524925900000000000010000VILLANUEVA, RAFAEL                                                    00IPSTAUCL              *
020525004100000000000010000TIELVE DE Y., CARMEN Y.                                               00IPSTAUCL              *
020525049800000000000010000ROJAS, VICTOR M.                                                      00IPSTAUCL              *
020525057100000000000010000GONZALEZ C., DANIEL E.                                                00IPSTAUCL              *
0240110675U0525073700000000000010000CALDERA, GLADYS M.                                                    00IPSTAUCL              *
0240116769U0525081300000000000010000BELLO DE M., ARELYS                                                   00IPSTAUCL              *
